{
  "contractName": "UniFi",
  "abi": [
    {
      "inputs": [],
      "stateMutability": "nonpayable",
      "type": "constructor"
    },
    {
      "stateMutability": "nonpayable",
      "type": "fallback"
    },
    {
      "stateMutability": "payable",
      "type": "receive",
      "payable": true
    },
    {
      "inputs": [
        {
          "internalType": "uint256",
          "name": "_longitude",
          "type": "uint256"
        },
        {
          "internalType": "uint256",
          "name": "_latitude",
          "type": "uint256"
        },
        {
          "internalType": "uint256",
          "name": "_base_fee",
          "type": "uint256"
        },
        {
          "internalType": "string",
          "name": "_ssid",
          "type": "string"
        },
        {
          "internalType": "string",
          "name": "_mac_address",
          "type": "string"
        }
      ],
      "name": "registerHost",
      "outputs": [],
      "stateMutability": "nonpayable",
      "type": "function"
    },
    {
      "inputs": [],
      "name": "login",
      "outputs": [],
      "stateMutability": "nonpayable",
      "type": "function"
    },
    {
      "inputs": [
        {
          "internalType": "address",
          "name": "user",
          "type": "address"
        },
        {
          "internalType": "uint256",
          "name": "charge",
          "type": "uint256"
        }
      ],
      "name": "logout",
      "outputs": [],
      "stateMutability": "nonpayable",
      "type": "function"
    },
    {
      "inputs": [],
      "name": "deposit",
      "outputs": [],
      "stateMutability": "payable",
      "type": "function",
      "payable": true
    },
    {
      "inputs": [],
      "name": "withdrawHost",
      "outputs": [],
      "stateMutability": "nonpayable",
      "type": "function"
    },
    {
      "inputs": [],
      "name": "withdrawUser",
      "outputs": [],
      "stateMutability": "nonpayable",
      "type": "function"
    }
  ],
  "bytecode": "0x608060405260036000806101000a81548160ff021916908360ff16021790555034801561002b57600080fd5b50610a8d8061003b6000396000f3fe6080604052600436106100595760003560e01c80630d332af7146100725780635a2b7d3c14610089578063abcbb55f146100e4578063b34e97e8146100fb578063cf6a70ad14610112578063d0e30db01461028f57610060565b3661006057005b34801561006c57600080fd5b50600080fd5b34801561007e57600080fd5b50610087610299565b005b34801561009557600080fd5b506100e2600480360360408110156100ac57600080fd5b81019080803573ffffffffffffffffffffffffffffffffffffffff1690602001909291908035906020019092919050505061036c565b005b3480156100f057600080fd5b506100f9610485565b005b34801561010757600080fd5b50610110610558565b005b34801561011e57600080fd5b5061028d600480360360a081101561013557600080fd5b810190808035906020019092919080359060200190929190803590602001909291908035906020019064010000000081111561017057600080fd5b82018360208201111561018257600080fd5b803590602001918460018302840111640100000000831117156101a457600080fd5b91908080601f016020809104026020016040519081016040528093929190818152602001838380828437600081840152601f19601f8201169050808301925050505050505091929192908035906020019064010000000081111561020757600080fd5b82018360208201111561021957600080fd5b8035906020019184600183028401116401000000008311171561023b57600080fd5b91908080601f016020809104026020016040519081016040528093929190818152602001838380828437600081840152601f19601f82011690508083019250505050505050919291929050505061067c565b005b61029761084e565b005b6000600360003373ffffffffffffffffffffffffffffffffffffffff1673ffffffffffffffffffffffffffffffffffffffff1681526020019081526020016000205490506000600360003373ffffffffffffffffffffffffffffffffffffffff1673ffffffffffffffffffffffffffffffffffffffff168152602001908152602001600020819055503373ffffffffffffffffffffffffffffffffffffffff166108fc829081150290604051600060405180830381858888f19350505050158015610368573d6000803e3d6000fd5b5050565b8160011515600260008373ffffffffffffffffffffffffffffffffffffffff1673ffffffffffffffffffffffffffffffffffffffff16815260200190815260200160002060000160009054906101000a900460ff161515146103cd57600080fd5b81600260008573ffffffffffffffffffffffffffffffffffffffff1673ffffffffffffffffffffffffffffffffffffffff16815260200190815260200160002060010160008282540392505081905550610425610485565b6000600260008573ffffffffffffffffffffffffffffffffffffffff1673ffffffffffffffffffffffffffffffffffffffff16815260200190815260200160002060000160006101000a81548160ff021916908315150217905550505050565b6000600360003373ffffffffffffffffffffffffffffffffffffffff1673ffffffffffffffffffffffffffffffffffffffff1681526020019081526020016000205490503373ffffffffffffffffffffffffffffffffffffffff166108fc829081150290604051600060405180830381858888f1935050505015801561050f573d6000803e3d6000fd5b506000600360003373ffffffffffffffffffffffffffffffffffffffff1673ffffffffffffffffffffffffffffffffffffffff1681526020019081526020016000208190555050565b3360001515600260008373ffffffffffffffffffffffffffffffffffffffff1673ffffffffffffffffffffffffffffffffffffffff16815260200190815260200160002060000160009054906101000a900460ff161515146105b957600080fd5b60001515600260003373ffffffffffffffffffffffffffffffffffffffff1673ffffffffffffffffffffffffffffffffffffffff16815260200190815260200160002060000160019054906101000a900460ff161515141561061e5761061d6108a0565b5b6001600260003373ffffffffffffffffffffffffffffffffffffffff1673ffffffffffffffffffffffffffffffffffffffff16815260200190815260200160002060000160006101000a81548160ff02191690831515021790555050565b82600160003373ffffffffffffffffffffffffffffffffffffffff1673ffffffffffffffffffffffffffffffffffffffff1681526020019081526020016000206004018190555084600160003373ffffffffffffffffffffffffffffffffffffffff1673ffffffffffffffffffffffffffffffffffffffff1681526020019081526020016000206001018190555083600160003373ffffffffffffffffffffffffffffffffffffffff1673ffffffffffffffffffffffffffffffffffffffff1681526020019081526020016000206002018190555081600160003373ffffffffffffffffffffffffffffffffffffffff1673ffffffffffffffffffffffffffffffffffffffff16815260200190815260200160002060050190805190602001906107a79291906109b2565b5080600160003373ffffffffffffffffffffffffffffffffffffffff1673ffffffffffffffffffffffffffffffffffffffff16815260200190815260200160002060060190805190602001906107fe9291906109b2565b506000600160003373ffffffffffffffffffffffffffffffffffffffff1673ffffffffffffffffffffffffffffffffffffffff168152602001908152602001600020600001819055505050505050565b34600260003373ffffffffffffffffffffffffffffffffffffffff1673ffffffffffffffffffffffffffffffffffffffff16815260200190815260200160002060010160008282540192505081905550565b3360001515600260008373ffffffffffffffffffffffffffffffffffffffff1673ffffffffffffffffffffffffffffffffffffffff16815260200190815260200160002060000160009054906101000a900460ff1615151461090157600080fd5b60405180606001604052806000151581526020016001151581526020016000815250600260003373ffffffffffffffffffffffffffffffffffffffff1673ffffffffffffffffffffffffffffffffffffffff16815260200190815260200160002060008201518160000160006101000a81548160ff02191690831515021790555060208201518160000160016101000a81548160ff0219169083151502179055506040820151816001015590505050565b828054600181600116156101000203166002900490600052602060002090601f016020900481019282601f106109f357805160ff1916838001178555610a21565b82800160010185558215610a21579182015b82811115610a20578251825591602001919060010190610a05565b5b509050610a2e9190610a32565b5090565b610a5491905b80821115610a50576000816000905550600101610a38565b5090565b9056fea26469706673582212206aa0541b34aea26949af1aefb94de621f418214aeddb41a67e11c5da9e5e54ee64736f6c63430006000033",
  "source": "pragma solidity ^0.6.0;\n\n/// @title Unifi contract - EthLondon Hackathon\n/// @author Extropy.io team\n/// @notice You can use this contract to get paid for your wifi\n/// @dev Are we going to implement ERC20 Token?\ncontract UniFi {\n    \n    // Minimum topup is 10 MB = 10,000,000,000,000 wei\n    uint constant minimum_topup = 10_000_000_000_000 wei;\n    uint8 base_rating = 3;\n    \n    struct User {\n        bool is_connected;  // to the wifi?\n        bool is_registered; // have he ever used Uni-Fi\n        uint256 balance;\n    }\n    \n    struct Host {\n        uint256 balance;\n        uint256 longitude;\n        uint256 latitude;\n        uint256 users_connected;\n        uint256 base_fee;\n        string ssid;\n        string mac_address;\n        uint8[5] rating;\n    }\n    \n    mapping(address => Host) host_array;\n    mapping(address => User) user_array;\n    mapping(address => uint) pendingWithdrawals;\n    \n    constructor() public {\n       // set owner\n    }\n    \n    modifier isConnected(address user) {\n        require(user_array[user].is_connected == true);\n        _;\n    }\n    \n    modifier isNotConnected(address user) {\n        require(user_array[user].is_connected == false);\n        _;\n    }\n    \n    /// @param _longitude wifi longitude (geolocation)\n    /// @param _latitude wifi latitude (geolocation)\n    /// @param _ssid SSID of the wifi host\n    /// @param _mac_address Mac Address\n    function registerHost(uint256 _longitude,\n        uint256 _latitude,\n        uint256 _base_fee,\n        string memory _ssid,\n        string memory _mac_address \n    ) public {\n        host_array[msg.sender].base_fee = _base_fee;\n        host_array[msg.sender].longitude = _longitude;\n        host_array[msg.sender].latitude = _latitude;\n        host_array[msg.sender].ssid = _ssid;\n        host_array[msg.sender].mac_address = _mac_address;\n        host_array[msg.sender].balance = 0;\n    }\n    \n    function registerUser() private isNotConnected(msg.sender){\n        user_array[msg.sender] = User({\n            is_connected: false,\n            is_registered: true,\n            balance: 0\n        });\n    }\n    \n    function repHost(address _host, uint8 _rep) internal {\n        host_array[_host].rating[_rep] += 1;\n    }\n    \n    function login() public isNotConnected(msg.sender) {\n        if ( user_array[msg.sender].is_registered == false ) {\n            registerUser();\n        }\n        // here we login\n        user_array[msg.sender].is_connected = true;\n    }\n    \n    function logout(address user, uint charge) public isConnected(user) {\n        // subtract the charge\n        user_array[user].balance -= charge;\n        withdrawUser();\n        //address(this).transfer(due_to_contract);\n        // user.transfer(due_to_user);\n        user_array[user].is_connected = false;\n    }\n    \n    function deposit() public payable {\n        user_array[msg.sender].balance += msg.value;\n    }\n    \n    function withdrawHost() public {\n        // subtract user usage from host balance\n        uint amount = pendingWithdrawals[msg.sender];\n        // Remember to zero the pending refund before\n        // sending to prevent re-entrancy attacks\n        pendingWithdrawals[msg.sender] = 0;\n        msg.sender.transfer(amount);\n    }\n    \n    function withdrawUser() public {\n        // subtract user usage from user balance\n        uint amount = pendingWithdrawals[msg.sender];\n        // Remember to zero the pending refund before\n        // sending to prevent re-entrancy attacks\n        msg.sender.transfer(amount);\n        pendingWithdrawals[msg.sender] = 0;\n    }\n    \n    /// Handle ethers received by the contract\n    receive() external payable {\n    }\n    \n    /// Handle undefined function calls\n    fallback() external {\n        revert();\n    }\n}\n",
  "sourcePath": "/Users/jeancavallera/Desktop/Documents/Business/Laurence-Kirk/UniFi/contracts/UniFi.sol",
  "compiler": {
    "name": "solc",
    "version": "0.6.0+commit.26b70077.Emscripten.clang"
  },
  "schemaVersion": "3.0.23",
  "updatedAt": "2020-02-29T23:12:14.334Z",
  "networkType": "ethereum",
  "devdoc": {
    "author": "Extropy.io team",
    "details": "Are we going to implement ERC20 Token?",
    "methods": {
      "registerHost(uint256,uint256,uint256,string,string)": {
        "params": {
          "_latitude": "wifi latitude (geolocation)",
          "_longitude": "wifi longitude (geolocation)",
          "_mac_address": "Mac Address",
          "_ssid": "SSID of the wifi host"
        }
      }
    },
    "title": "Unifi contract - EthLondon Hackathon"
  },
  "userdoc": {
    "methods": {},
    "notice": "You can use this contract to get paid for your wifi"
  }
}